:100000000C942A000C9447000C9447000C94470071
:100010000C9447000C9447000C9447000C94470044
:100020000C9447000C9447000C9425190C94E61886
:100030000C9447000C9447000C9447000C94470024
:100040000C9447000C9447000C9447000C94470014
:100050000C94470011241FBECFE5D8E0DEBFCDBF12
:1000600012E0A0E6B0E0E0E8F8E402C005900D92EE
:10007000A030B107D9F712E0A0E0B2E001C01D92B4
:10008000A032B107E1F70E9472220C943E240C9436
:100090000000EF92FF920F931F937B018C0120E0F1
:1000A00030E040E05FE40E94DA1088238CF0C80161
:1000B000B70120E030E040E05FE40E94A60E0E941D
:1000C0003A119B01AC01205030404040504806C0DE
:1000D000C801B7010E943A119B01AC01B901CA01E4
:1000E0001F910F91FF90EF900895AEE5B0E0EBE720
:1000F000F0E00C940724A8E04E010894811C911CA8
:10010000F4016A2E11926A94E9F729833A834B83AA
:100110005C836D837E838F839887CE010996FC0173
:100120001192AA95E9F7A986BA86CB86DC86ED8678
:10013000FE860F87188B29843A844B845C84ED8477
:10014000FE840F85188969807A808B809C806DA6DB
:100150007EA68FA698AA6D807E808F809884E114F9
:10016000F1040105110509F0B3C36214730484049A
:10017000950408F03DC100E0201600E0300601E0E3
:10018000400600E0500688F41FEF211631044104B8
:10019000510439F030F048E0E42EF12C012D112DFE
:1001A00018C0EE24FF24870114C020E0221620E0AE
:1001B000320620E0420621E0520630F038E1E32E1C
:1001C000F12C012D112D05C020E1E22EF12C012D85
:1001D000112DD201C1010E2C04C0B695A79597959B
:1001E00087950A94D2F789579F4FDC012C9180E2C2
:1001F00090E0A0E0B0E08E199F09A00BB10B7C014C
:100200008D01E21AF10801091109E114F104010557
:100210001105A1F10E2C04C0220C331C441C551CEA
:100220000A94D2F7A40193010E2C04C0220F331FAD
:10023000441F551F0A94D2F780E290E08E199F095F
:100240006DA47EA48FA498A804C0969487947794F4
:1002500067948A95D2F7622A732A842A952AADA4D4
:10026000BEA4CFA4D8A804C0AA0CBB1CCC1CDD1C07
:10027000EA94D2F7ADA6BEA6CFA6D8AA6201EE2414
:10028000FF24CDAADEAAEFAAF8AE92018101207068
:10029000307009AF1AAF2BAF3CAFC401B301A70157
:1002A00096010E94C6237B018C01C401B3012DA9D4
:1002B0003EA94FA958AD0E94C623C901DA013C01ED
:1002C0004D01C401B30129AD3AAD4BAD5CAD0E9407
:1002D000E8239B01AC018701FF24EE24ADA4BEA45A
:1002E000CFA4D8A8C601AA27BB2757016801A82A0E
:1002F000B92ACA2ADB2AA216B306C406D506E0F438
:1003000008946108710881089108A20CB31CC41CF0
:10031000D51CA214B304C404D50470F0A216B3060D
:10032000C406D50648F4089461087108810891084C
:10033000A20CB31CC41CD51CA21AB30AC40AD50A49
:10034000C601B5012DA93EA94FA958AD0E94C623EB
:100350007B018C01C601B5012DA93EA94FA958AD5D
:100360000E94C623C901DA015C016D01C601B50115
:1003700029AD3AAD4BAD5CAD0E94E8239B01AC01C9
:100380008701FF24EE248DA59EA5AFA5B8A9A07076
:10039000B070E82AF92A0A2B1B2BE216F306040791
:1003A0001507C0F40894A108B108C108D108E20CEF
:1003B000F31C041D151DE214F3040405150550F08B
:1003C000E216F3060407150728F40894A108B108FB
:1003D000C108D108D3019927882786017501E82A29
:1003E000F92A0A2B1B2BE9AAFAAA0BAB1CABCFC428
:1003F000211431044104510471F461E070E080E0A3
:1004000090E020E030E040E050E00E94C623C901C7
:10041000DA011C012D0100E0201600E0300601E0A9
:10042000400600E0500688F41FEF21163104410415
:10043000510431F028F048E050E060E070E017C06F
:1004400040E050E060E070E012C020E0221620E0C2
:10045000320620E0420621E0520628F048E150E052
:1004600060E070E004C040E150E060E070E0D20184
:10047000C101042E04C0B695A795979587950A9457
:10048000D2F789579F4FDC012C91E0E2EE2EF12C40
:10049000012D112DD801C701841B950BA60BB70B9D
:1004A000821B9109A109B1090097A105B10561F469
:1004B00064015301A218B308C408D50831E0632EC3
:1004C000712C812C912C1EC16F968FAF6F97082EC7
:1004D00004C0220C331C441C551C0A94D2F7EE2D88
:1004E000E81B640153010E2E04C0D694C794B79440
:1004F000A7940A94D2F7A40193016F960FAC6F975B
:1005000004C0220F331F441F551F0A94D2F76DA455
:100510007EA48FA498A80E2E04C0969487947794F6
:1005200067940A94D2F784017301E22AF32A042B18
:10053000152BE9A6FAA60BA71CA73201882499243B
:10054000920181012070307021960CAF1DAF2EAF4B
:100550003FAF2197C601B501A40193010E94C623B4
:100560007B018C01C601B501A40193010E94C62341
:10057000C901DA0125968CAF9DAFAEAFBFAF25970D
:10058000BC01CD0121962CAD3DAD4EAD5FAD2197A7
:100590000E94E8239B01AC018701FF24EE24A9A45B
:1005A000BAA4CBA4DCA4C601AA27BB275C016D01B9
:1005B000AE28BF28C02AD12AA216B306C406D50683
:1005C00060F525966CAD7DAD8EAD9FAD25976150E4
:1005D00070408040904025966CAF7DAF8EAF9FAF4E
:1005E0002597A20CB31CC41CD51CA214B304C404CC
:1005F000D50498F0A216B306C406D50670F461506F
:1006000070408040904025966CAF7DAF8EAF9FAF1D
:100610002597A20CB31CC41CD51CA21AB30AC40A89
:10062000D50AC601B501A40193010E94C6237B012E
:100630008C01C601B501A40193010E94C623C90122
:10064000DA013C014D01C401B30121962CAD3DAD51
:100650004EAD5FAD21970E94E8239B01AC0187015D
:10066000FF24EE2489A59AA5ABA5BCA5A070B07007
:1006700057016801A82AB92ACA2ADB2AA216B3069A
:10068000C406D506E0F40894610871088108910851
:10069000A20CB31CC41CD51CA214B304C404D504FE
:1006A00070F0A216B306C406D50648F40894610893
:1006B000710881089108A20CB31CC41CD51C8DA51F
:1006C0009EA5AFA5B8A96F960FAC6F9704C0880F11
:1006D000991FAA1FBB1F0A94D2F78DA79EA7AFA789
:1006E000B8ABA21AB30AC40AD50A2596ECACFDAC85
:1006F0000EAD1FAD2597D70199278827682A792A3B
:100700008A2A9B2A82012227332729960CAF1DAF04
:100710002EAF3FAF2997A2019101407050702D96E6
:100720002CAF3DAF4EAF5FAF2D97C601B5012996F7
:100730002CAD3DAD4EAD5FAD29970E94C6237B0128
:100740008C01C601B50129962CAD3DAD4EAD5FAD16
:1007500029970E94C623C901DA0161968CAF9DAF2B
:10076000AEAFBFAF6197BC01CD012D962CAD3DADB5
:100770004EAD5FAD2D970E94E8239B01AC01870130
:10078000FF24EE24ADA4BEA4CFA4D8A8C601AA27F6
:10079000BB2757016801A82AB92ACA2ADB2AA21650
:1007A000B306C406D50660F561966CAD7DAD8EAD21
:1007B0009FAD6197615070408040904061966CAFF2
:1007C0007DAF8EAF9FAF6197A20CB31CC41CD51C2C
:1007D000A214B304C404D50498F0A216B306C40648
:1007E000D50670F4615070408040904061966CAFC7
:1007F0007DAF8EAF9FAF6197A20CB31CC41CD51CFC
:10080000A21AB30AC40AD50AC601B50129962CADAD
:100810003DAD4EAD5FAD29970E94C6237B018C0193
:10082000C601B50129962CAD3DAD4EAD5FAD299702
:100830000E94C623C901DA015C016D01C601B50140
:100840002D962CAD3DAD4EAD5FAD2D970E94E823AA
:100850009B01AC018701FF24EE248DA59EA5AFA5C9
:10086000B8A9A070B070E82AF92A0A2B1B2BE2164F
:10087000F30604071507C0F40894A108B108C108DD
:10088000D108E20CF31C041D151DE214F304040549
:10089000150550F0E216F3060407150728F408942E
:1008A000A108B108C108D1086196ECACFDAC0EAD51
:1008B0001FAD6197D7019927882796018501082BDD
:1008C000192B2A2B3B2B09AB1AAB2BAB3CAB62C2CF
:1008D0006E147F048006910608F451C220E0E216EF
:1008E00020E0F20621E0020720E0120788F43FEF43
:1008F000E316F1040105110531F028F048E050E05D
:1009000060E070E017C040E050E060E070E012C0CE
:1009100040E0E41640E0F40640E0040741E014073C
:1009200028F048E150E060E070E004C040E150E0B1
:1009300060E070E0D801C701042E04C0B695A79509
:10094000979587950A94D2F789579F4FDC012C9190
:1009500030E2A32EB12CC12CD12CD601C501841BB1
:10096000950BA60BB70B821B9109A109B109009742
:10097000A105B10589F4E614F7040805190508F482
:10098000F2C16DA47EA48FA498A862147304840499
:10099000950408F0E8C1F3C16E968FAF6E97082EEC
:1009A00004C0EE0CFF1C001F111F0A94D2F76A2D21
:1009B000681BD201C101062E04C0B695A795979574
:1009C00087950A94D2F75C016D01AE28BF28C02A32
:1009D000D12AADA2BEA2CFA2D8A6720161016E96A5
:1009E0000FAC6E9704C0CC0CDD1CEE1CFF1C0A94EF
:1009F000D2F7C9A2DAA2EBA2FCA264015301062E2F
:100A000004C0D694C794B794A7940A94D2F7D4019B
:100A1000C3016E960FAC6E9704C0880F991FAA1F72
:100A2000BB1F0A94D2F7EDA4FEA40FA518A904C019
:100A300016950795F794E7946A95D2F73701480120
:100A4000682A792A8A2A9B2A6D8E7E8E8F8E98A29A
:100A5000EDA0FEA00FA118A53801882499249801C3
:100A600087012070307065960CAF1DAF2EAF3FAF81
:100A70006597C601B501A40193010E94C6237B01BD
:100A80008C01C601B501A40193010E94C623C901CE
:100A9000DA011C012D01C201B10165962CAD3DADFD
:100AA0004EAD5FAD65970E94E8239B01AC018701C5
:100AB000FF24EE24AD8CBE8CCF8CD8A0C601AA2713
:100AC000BB2757016801A82AB92ACA2ADB2AA2161D
:100AD000B306C406D50600F508942108310841087C
:100AE0005108EDA0FEA00FA118A5AE0CBF1CC01EA2
:100AF000D11EAE14BF04C006D10670F0A216B30614
:100B0000C406D50648F40894210831084108510864
:100B1000AE0CBF1CC01ED11EA21AB30AC40AD50A4D
:100B2000C601B501A40193010E94C6237B018C017B
:100B3000C601B501A40193010E94C623C901DA01CF
:100B40003C014D01C401B30165962CAD3DAD4EADE8
:100B50005FAD65970E94E8239B01AC018701FF24EC
:100B6000EE248D8D9E8DAF8DB8A1A070B070570111
:100B70006801A82AB92ACA2ADB2AA216B306C40623
:100B8000D50600F5089461087108810891086DA1E7
:100B90007EA18FA198A5A60EB71EC81ED91EA616A7
:100BA000B706C806D90670F0A216B306C406D50665
:100BB00048F408946108710881089108A60EB71ED0
:100BC000C81ED91ED601C501821B930BA40BB50B01
:100BD000898F9A8FAB8FBC8FD101992788276401A9
:100BE0005301A82AB92ACA2ADB2AA9AABAAACBAAD7
:100BF000DCAA860175012FEF3FEF40E050E0E222D2
:100C0000F32204231523A601662777276D964CAFA0
:100C10005DAF6EAF7FAF6D97A9A0BAA0CBA0DCA0EF
:100C20006FEF7FEF80E090E0A622B722C822D922A2
:100C300089A19AA1ABA1BCA11D0144245524C801DE
:100C4000B701A60195010E94E82369966CAF7DAFBC
:100C50008EAF9FAF6997C801B701A20191010E94B1
:100C6000E8233B014C016D966CAD7DAD8EAD9FAD23
:100C70006D97A60195010E94E8237B018C016D967A
:100C80006CAD7DAD8EAD9FAD6D97A20191010E94BF
:100C9000E8235B016C01A8019701260D371D481D53
:100CA000591D69966CAC7DAC8EAC9FAC6997C40144
:100CB000AA27BB27280F391F4A1F5B1F2E153F0588
:100CC0004007510748F4E12CF12C61E0062F112D6B
:100CD000AE0CBF1CC01ED11ECA01AA27BB27BC0177
:100CE000CD016A0D7B1D8C1D9D1D698C7A8C8B8CB2
:100CF0009C8C661677068806990640F1661577057E
:100D00008805990509F043C0D90199278827699674
:100D10002CAD3DAD4EAD5FAD699740705070820F08
:100D2000931FA41FB51F2DA53EA54FA558A96E96CC
:100D30000FAC6E9704C0220F331F441F551F0A9437
:100D4000D2F7281739074A075B0708F509A91AA936
:100D50002BA93CA9015010402040304009AB1AABF0
:100D60002BAB3CAB14C066247724430121E030E078
:100D700040E050E029AB3AAB4BAB5CAB0BC0662418
:100D80007724430119AA1AAA1BAA1CAA03C0662425
:100D900077244301FE01719688E0DF011D928A9558
:100DA000E9F7A9A8BAA8CBA8DCA8A98ABA8ACB8AED
:100DB000DC8A6D8A7E8A8F8A988E29A93A894B8926
:100DC0005C89662D7E898F89988DC25ADF4FE2E15A
:100DD0000C942324ABE5B0E0E0EFF6E00C9407249C
:100DE000A8E04E010894811C911CF4016A2E119216
:100DF0006A94E9F729833A834B835C836D837E830E
:100E00008F839887CE010996FC011192AA95E9F784
:100E1000A986BA86CB86DC86ED86FE860F87188B80
:100E200029843A844B845C84AD84BE84CF84D88882
:100E300029813A814B815C8169962FAF69976A96C7
:100E40003FAF6A976B964FAF6B976C965FAF6C979F
:100E50006C966CAC7DAC8EAC9FAC6C9769AA7AAA90
:100E60008BAA9CAA6D817E818F8198853B014C0164
:100E70006DAA7EAA8FAA98AEA114B104C104D104B0
:100E800009F004C3621473048404950408F000C1DB
:100E900000E0201600E0300601E0400600E05006C9
:100EA00088F41FEF211631044104510439F030F069
:100EB00088E0E82EF12C012D112D18C0EE24FF241E
:100EC000870114C040E0241640E0340640E04406A8
:100ED00041E0540630F0B8E1EB2EF12C012D112D3C
:100EE00005C0A0E1EA2EF12C012D112DD201C10186
:100EF0000E2C04C0B695A795979587950A94D2F7BE
:100F000089579F4FDC012C9180E290E0A0E0B0E097
:100F10008E199F09A00BB10B5C016D01A21AB108DB
:100F2000C108D108A9AEBAAECBAEDCAEA114B104F3
:100F3000C104D10409F43FC069AD062E04C0220CDF
:100F4000331C441C551C0A94D2F7A4019301062EAD
:100F500004C0220F331F441F551F0A94D2F780E2AA
:100F600090E08A199B096C96CCACDDACEEACFFAC82
:100F70006C9704C0F694E794D794C7948A95D2F7F7
:100F800087017601E22AF32A042B152BEDAAFEAA8B
:100F90000FAB18AF6C968CAD9DADAEADBFAD6C9781
:100FA00004C0880F991FAA1FBB1F6A95D2F789AB8F
:100FB0009AABABABBCAB320188249924B201A1013E
:100FC0006070707021964CAF5DAF6EAF7FAF2197B0
:100FD0006DA97EA98FA998ADA40193010E94C62393
:100FE0007B018C016DA97EA98FA998ADA401930105
:100FF0000E94C623CA01B90121962CAD3DAD4EAD6C
:101000005FAD21970E94E8239B01AC018701FF247B
:10101000EE24A9A8BAA8CBA8DCA8C601AA27BB279A
:1010200057016801A82AB92ACA2ADB2AA216B306E0
:10103000C406D50690F4A20CB31CC41CD51CA21483
:10104000B304C404D50448F0A216B306C406D506FA
:1010500020F4A20CB31CC41CD51CA21AB30AC40AE7
:10106000D50AC601B501A40193010E94C6237B01E4
:101070008C01C601B501A40193010E94C623CA01D7
:10108000B90121962CAD3DAD4EAD5FAD2197BAC1F2
:10109000211431044104510471F461E070E080E0F6
:1010A00090E020E030E040E050E00E94C623C9011B
:1010B000DA011C012D0100E0201600E0300601E0FD
:1010C000400600E0500688F41FEF21163104410469
:1010D000510439F030F068E0E62EF12C012D112D8D
:1010E00018C0EE24FF24870114C040E0241640E01D
:1010F000340640E0440641E0540630F058E1E52E65
:10110000F12C012D112D05C040E1E42EF12C012D13
:10111000112DD201C1010E2C04C0B695A79597954B
:1011200087950A94D2F789579F4FDC012C9130E2C2
:10113000A32EB12CC12CD12CD601C5018E199F092B
:10114000A00BB10B7C018D01E21AF1080109110914
:10115000E9AEFAAE0BAF1CAFE114F10401051105C5
:1011600039F464015301A218B308C408D508E2C0D9
:10117000F9AC6896FFAE68970F2C04C0220C331CA4
:10118000441C551C0A94D2F78A2D8F19640153010F
:10119000082E04C0D694C794B794A7940A94D2F7A3
:1011A000A401930104C0220F331F441F551FFA945A
:1011B000D2F76C966CAC7DAC8EAC9FAC6C9704C0D7
:1011C00096948794779467948A95D2F784017301F3
:1011D000E22AF32A042B152BEDA6FEA60FA718ABC7
:1011E000320188249924B201A101607070702596A3
:1011F0004CAF5DAF6EAF7FAF2597C601B501A401BF
:1012000093010E94C6237B018C01C601B501A40194
:1012100093010E94C623CA01B90125962CAD3DADAC
:101220004EAD5FAD25970E94E8239B01AC0187017D
:10123000FF24EE24ADA4BEA4CFA4D8A8C601AA273B
:10124000BB275C016D01AE28BF28C02AD12AA21697
:10125000B306C406D50690F4A20CB31CC41CD51C5E
:10126000A214B304C404D50448F0A216B306C406FD
:10127000D50620F4A20CB31CC41CD51CA21AB30AB8
:10128000C40AD50AC601B501A40193010E94C62370
:101290007B018C01C601B501A40193010E94C62304
:1012A000CA01B90125962CAD3DAD4EAD5FAD259778
:1012B0000E94E8239B01AC018701FF24EE248DA549
:1012C0009EA5AFA5B8A9A070B07057016801A82A63
:1012D000B92ACA2ADB2AA216B306C406D50690F498
:1012E000A20CB31CC41CD51CA214B304C404D504A2
:1012F00048F0A216B306C406D50620F4A20CB31C0F
:10130000C41CD51C6C96ECACFDAC0EAD1FAD6C973F
:1013100068960FAC689704C0EE0CFF1C001F111FED
:101320000A94D2F7E9AAFAAA0BAB1CABA21AB30A29
:10133000C40AD50A320188249924B201A10160703F
:10134000707029964CAF5DAF6EAF7FAF2997C60125
:10135000B501A40193010E94C6237B018C01C60143
:10136000B501A40193010E94C623CA01B9012996BF
:101370002CAD3DAD4EAD5FAD29970E94E8239B019A
:10138000AC018701FF24EE24A9A8BAA8CBA8DCA849
:10139000C601AA27BB2757016801A82AB92ACA2A69
:1013A000DB2AA216B306C406D50690F4A20CB31C21
:1013B000C41CD51CA214B304C404D50448F0A2165E
:1013C000B306C406D50620F4A20CB31CC41CD51C5D
:1013D000A21AB30AC40AD50AC601B501A401930131
:1013E0000E94C6237B018C01C601B501A4019301B3
:1013F0000E94C623CA01B90129962CAD3DAD4EAD60
:101400005FAD29970E94E8239B01AC018701FF246F
:10141000EE2489A99AA9ABA9BCA9A070B070E82A4A
:10142000F92A0A2B1B2BE216F3060407150790F482
:10143000E20CF31C041D151DE214F304040515054C
:1014400048F0E216F3060407150720F4E20CF31C3B
:10145000041D151DE21AF30A040B150BD801C70170
:1014600009AC04C0B695A795979587950A94D2F7CD
:10147000898B9A8BAB8BBC8B1D8A1E8A1F8A188E18
:10148000282F3A894B895C896D890CC36A147B04C7
:101490008C049D0408F409C300E0A01600E0B00627
:1014A00001E0C00600E0D00688F41FEFA116B104E9
:1014B000C104D10439F030F028E0E22EF12C012DE6
:1014C000112D18C0EE24FF24870114C040E0A4169B
:1014D00040E0B40640E0C40641E0D40630F098E1B4
:1014E000E92EF12C012D112D05C080E1E82EF12C03
:1014F000012D112DD601C5010E2C04C0B695A7955E
:10150000979587950A94D2F789579F4FDC012C91C4
:1015100080E290E0A0E0B0E08E199F09A00BB10B33
:10152000821B9109A109B1090097A105B10509F034
:101530004FC0A614B704C804D90458F06C96ECAC9C
:10154000FDAC0EAD1FAD6C97E214F3040405150558
:1015500068F16C96ECACFDAC0EAD1FAD6C97E2186B
:10156000F30804091509A40193012A193B094C0940
:101570005D09AA24BB2465016C966CAD7DAD8EAD72
:101580009FAD6C976E157F058007910728F4B1E039
:10159000AB2EB12CC12CD12CDA01C9018A199B09BF
:1015A000AC09BD098DAB9EABAFABB8AFE98AFA8A87
:1015B0000B8B1C8B6DA87EA88FA898AC6D8A7E8A39
:1015C0008F8A988E2E2D3A894B895C896DA96AC2C3
:1015D00067968FAF6797A6019501082E04C0220F6A
:1015E000331F441F551F0A94D2F7A0E2AA2EA81A4F
:1015F0006696AFAE6697D201C10104C0B695A795B5
:1016000097958795AA94D2F76C017D01C22AD32AB7
:10161000E42AF52AC9A6DAA6EBA6FCA68201710186
:1016200067960FAC679704C0EE0CFF1C001F111FDC
:101630000A94D2F7EDA2FEA20FA318A764015301EA
:1016400066960FAC669704C0D694C794B794A794D7
:101650000A94D2F7A401930167960FAC679704C070
:10166000220F331F441F551F0A94D2F76C968CAD7E
:101670009DADAEADBFAD6C9766960FAC669704C0DE
:10168000B695A795979587950A94D2F73C014D0199
:10169000622A732A842A952A69A27AA28BA29CA222
:1016A0006C96ECACFDAC0EAD1FAD6C9767960FACB5
:1016B000679704C0EE0CFF1C001F111F0A94D2F79D
:1016C000ED8EFE8E0F8F18A349A55AA56BA57CA59C
:1016D0003B0188249924607070702D964CAF5DAFEB
:1016E0006EAF7FAF2D97C601B501A40193010E9493
:1016F000C6237B018C01C601B501A40193010E94A0
:10170000C623C901DA011C012D01C201B1012D96C8
:101710002CAD3DAD4EAD5FAD2D970E94E8239B01F2
:10172000AC018701FF24EE24A9A0BAA0CBA0DCA0C5
:10173000C601AA27BB2757016801A82AB92ACA2AC5
:10174000DB2AA216B306C406D50600F508942108C4
:10175000310841085108E9A4FAA40BA51CA5AE0C58
:10176000BF1CC01ED11EAE14BF04C006D10670F04F
:10177000A216B306C406D50648F408942108310819
:1017800041085108AE0CBF1CC01ED11EA21AB30ADC
:10179000C40AD50AC601B501A40193010E94C6235B
:1017A0007B018C01C601B501A40193010E94C623EF
:1017B000C901DA013C014D01C401B3012D962CADE4
:1017C0003DAD4EAD5FAD2D970E94E8239B01AC016E
:1017D0008701FF24EE2489A19AA1ABA1BCA1A0702E
:1017E000B07057016801A82AB92ACA2ADB2AA216B2
:1017F000B306C406D50600F508946108710881088F
:10180000910869A57AA58BA59CA5A60EB71EC81E32
:10181000D91EA616B706C806D90670F0A216B306DA
:10182000C406D50648F40894610871088108910837
:10183000A60EB71EC81ED91ED601C501821B930B6A
:10184000A40BB50B898F9A8FAB8FBC8FD1019927D1
:10185000882784017301E82AF92A0A2B1B2B4FEFF2
:10186000A42E4FEFB42EC12CD12CAE20BF20C0220D
:10187000D1227801002711276DA07EA08FA098A407
:101880004FEF5FEF60E070E06422752286229722BE
:101890008DA19EA1AFA1B8A5BD0188279927659606
:1018A0006CAF7DAF8EAF9FAF6597C601B501A40148
:1018B00093010E94E82361966CAF7DAF8EAF9FAF1E
:1018C0006197C601B50165962CAD3DAD4EAD5FADDE
:1018D00065970E94E8231B012C01C801B701A401F0
:1018E00093010E94E8235B016C01C801B701659672
:1018F0002CAD3DAD4EAD5FAD65970E94E8237B01F9
:101900008C01A6019501220D331D441D551D6196C4
:101910006CAC7DAC8EAC9FAC6197C401AA27BB2791
:10192000280F391F4A1F5B1F2A153B054C055D0513
:1019300048F4812C912CE1E0AE2EB12CE80CF91C7E
:101940000A1D1B1DCA01AA27BB2757016801A80E43
:10195000B91ECA1EDB1EA9013327222761968CAD52
:101960009DADAEADBFAD6197A070B070280F391FAF
:101970004A1F5B1FE98CFA8C0B8D1C8DEA14FB044B
:101980000C051D0570F0AE14BF04C006D10669F544
:101990006D8D7E8D8F8D98A16217730784079507D3
:1019A00020F5DA01C9016DA07EA08FA098A4861948
:1019B0009709A809B909E9A4FAA40BA51CA5AE18B2
:1019C000BF08C00AD10AEE24FF248701281739076F
:1019D0004A075B0728F421E0E22EF12C012D112D9E
:1019E000AE18BF08C00AD10A02C0DA01C9016D8C65
:1019F0007E8C8F8C98A0681A790A8A0A9B0A498D76
:101A00005A8D6B8D7C8D4A195B096C097D095A01D1
:101A10006B012224332421016D8D7E8D8F8D98A141
:101A2000661577058805990528F481E0282E312C64
:101A3000412C512C86017501E218F308040915099F
:101A4000A801970166960FAC669704C0220F331F5A
:101A5000441F551F0A94D2F7D401C30167960FACF7
:101A6000679704C0B695A795979587950A94D2F77E
:101A7000282B392B4A2B5B2B298B3A8B4B8B5C8B7E
:101A800067960FAC679704C016950795F794E7948F
:101A90000A94D2F7ED8AFE8A0F8B188F3A894B8908
:101AA0005C896E2D7E898F89988DC55ADF4FE2E162
:101AB0000C942324A0E0B0E0E0E6FDE00C940724C1
:101AC000DC012B01FA019C91923008F439C1EB0141
:101AD0008881823008F433C1943069F4843009F08D
:101AE0002FC111969C9111978981981709F428C1EB
:101AF000AFE7B0E025C1843009F421C18230A9F4F8
:101B0000923009F01DC19A01AD0188E0EA01099007
:101B1000AE01E90109929E018150C1F7E20189817C
:101B200011969C918923818308C1923009F407C1E1
:101B300012962D903C901397EB018A819B8114960D
:101B4000AD90BD90CD90DC901797EC80FD800E811C
:101B50001F819101281B390BB90137FF04C066278B
:101B60007727621B730B603271050CF061C012168F
:101B700013066CF537014801062E04C0969487942D
:101B8000779467940A94D2F721E030E040E050E087
:101B900004C0220F331F441F551F6A95D2F72150EE
:101BA0003040404050402E213F21402351232115F9
:101BB00031054105510521F021E030E040E050E0E1
:101BC00079018A01E628F728082919293CC0232B26
:101BD000D1F1260E371E35014601062E04C096941B
:101BE0008794779467940A94D2F721E030E040E03C
:101BF00050E004C0220F331F441F551F6A95D2F7CF
:101C000021503040404050402A213B214C215D2151
:101C1000211531054105510521F021E030E040E07A
:101C200050E059016A01A628B728C828D9280BC056
:101C3000821593052CF01C01AA24BB24650103C066
:101C4000EE24FF24870111969C91D20111968C916C
:101C5000981709F445C0992339F0A80197012A196A
:101C60003B094C095D0906C0A60195012E193F09E3
:101C7000400B510B57FD08C011823382228224830E
:101C80003583468357831DC081E08183338222825E
:101C900088279927DC01821B930BA40BB50B848347
:101CA0009583A683B7830DC0220F331F441F551F92
:101CB000248335834683578382819381019793835D
:101CC00082832481358146815781DA01C9010197D8
:101CD000A109B1098F5F9F4FAF4FBF4328F30BC0DE
:101CE000918333822282EA0CFB1C0C1D1D1DE482B1
:101CF000F5820683178383E08083248135814681C2
:101D0000578157FF1AC0C901AA2797FDA095BA2F7E
:101D100081709070A070B070569547953795279553
:101D2000822B932BA42BB52B84839583A683B78317
:101D300082819381019693838283DF0101C0D20166
:101D4000CD01CDB7DEB7E2E10C942324A0E2B0E0F0
:101D5000ECEAFEE00C94132469837A838B839C83E2
:101D60002D833E834F835887E9E0EE2EF12CEC0E55
:101D7000FD1ECE010196B7010E9463128E010F5E17
:101D80001F4FCE010596B8010E9463128A8991E027
:101D900089278A8BC701B801AE01475E5F4F0E9459
:101DA0005A0D0E948E11A096E6E00C942F24A0E21A
:101DB000B0E0EDEDFEE00C94132469837A838B830D
:101DC0009C832D833E834F835887F9E0EF2EF12CBF
:101DD000EC0EFD1ECE010196B7010E9463128E012A
:101DE0000F5E1F4FCE010596B8010E946312C70116
:101DF000B801AE01475E5F4F0E945A0D0E948E11DE
:101E0000A096E6E00C942F24A0E2B0E0EAE0FFE028
:101E10000C94072469837A838B839C832D833E8370
:101E20004F835887CE010196BE01675F7F4F0E94A6
:101E30006312CE010596BE016F5E7F4F0E94631252
:101E40009985923088F089898230C8F0943019F4ED
:101E5000823051F404C0843029F4923081F48FE749
:101E600090E0C6C0923049F420E09A858A899813A0
:101E700021E02A87CE010996BBC0823049F420E0D8
:101E80009A858A89981321E02A8BCE014196B0C0A9
:101E90002D843E844F8458886D887E888F88988CE6
:101EA000EE24FF248701AA24BB24650140E050E012
:101EB00060E070E0E0E0F0E0C10181709070892B9B
:101EC000E9F0E60CF71C081D191D9A01AB012A0D5B
:101ED0003B1D4C1D5D1D80E090E0A0E0B0E0E614ED
:101EE000F7040805190520F481E090E0A0E0B0E0D7
:101EF000BA01A901480F591F6A1F7B1FAA0CBB1CFE
:101F0000CC1CDD1C97FE08C081E090E0A0E0B0E0B2
:101F1000A82AB92ACA2ADB2A3196E032F10549F00B
:101F2000660C771C881C991C569447943794279408
:101F3000C3CFFA85EA892B893C898B859C85280F3C
:101F4000391F2E5F3F4F17C0CA0181709070892BD7
:101F500061F016950795F794E79480E090E0A0E093
:101F6000B0E8E82AF92A0A2B1B2B76956795579536
:101F700047952F5F3F4F77FDE7CF0CC0440F551FAC
:101F8000661F771F17FD4160EE0CFF1C001F111F1D
:101F900021503040403090E0590790E0690790E4CC
:101FA000790760F32B8F3C8FDB01CA018F7790702C
:101FB000A070B07080349105A105B10561F447FDB2
:101FC0000AC0E114F1040105110529F0405C5F4FDE
:101FD0006F4F7F4F40781A8EFE1711F081E08A8F85
:101FE0004D8F5E8F6F8F78A383E0898FCE014996E6
:101FF0000E948E11A096E2E10C942324A8E1B0E0A7
:10200000E4E0F0E10C940F2469837A838B839C8352
:102010002D833E834F835887B9E0EB2EF12CEC0ED5
:10202000FD1ECE010196B7010E9463128E010F5E64
:102030001F4FCE010596B8010E94631229852230F8
:1020400008F47EC03989323010F4B8017CC08A852A
:102050009A8989278A87243011F0223031F4231796
:1020600009F06EC06FE770E06EC0343039F41D8641
:102070001E861F86188A1C861B8604C0323021F4F7
:1020800084E08987B7015FC02B853C858B899C895B
:10209000281B390B3C872B87ED84FE840F8518891C
:1020A000AD88BE88CF88D88CEA14FB040C051D05CA
:1020B00040F4EE0CFF1C001F111F215030403C87E4
:1020C0002B8720E030E040E050E080E090E0A0E0AE
:1020D000B0E460E070E0EA14FB040C051D0540F07C
:1020E000282B392B4A2B5B2BEA18FB080C091D09FE
:1020F000B695A79597958795EE0CFF1C001F111FAD
:102100006F5F7F4F6F31710531F7DA01C9018F774A
:102110009070A070B07080349105A105B10561F494
:1021200027FD0AC0E114F1040105110529F0205C26
:102130003F4F4F4F5F4F20782D873E874F87588BFB
:10214000BE01675F7F4FCB010E948E116896EAE067
:102150000C942B24A8E1B0E0E0EBF0E10C94132404
:1021600069837A838B839C832D833E834F83588737
:1021700089E0E82EF12CEC0EFD1ECE010196B70190
:102180000E9463128E010F5E1F4FCE010596B801AB
:102190000E9463128985823040F08989823028F05C
:1021A000C701B8010E94DB1201C08FEF6896E6E01C
:1021B0000C942F24A8E1B0E0E0EEF0E10C9413249D
:1021C00069837A838B839C832D833E834F835887D7
:1021D00089E0E82EF12CEC0EFD1ECE010196B70130
:1021E0000E9463128E010F5E1F4FCE010596B8014B
:1021F0000E9463128985823040F08989823028F0FC
:10220000C701B8010E94DB1201C08FEF6896E6E0BB
:102210000C942F24A8E1B0E0E0E1F1E10C94132448
:1022200069837A838B839C832D833E834F83588776
:1022300089E0E82EF12CEC0EFD1ECE010196B701CF
:102240000E9463128E010F5E1F4FCE010596B801EA
:102250000E9463128985823040F08989823028F09B
:10226000C701B8010E94DB1201C081E06896E6E078
:102270000C942F24ACE0B0E0E0E4F1E10C941724DE
:1022800069837A838B839C83CE010196BE016B5F49
:102290007F4F0E9463128D81823061F1823050F154
:1022A000843021F48E81882351F12EC02F8138850E
:1022B00037FD20C06E812F3131051CF06623F9F007
:1022C00023C08EE190E0821B930B29853A854B85D4
:1022D0005C8504C056954795379527958A95D2F722
:1022E0006623B1F050954095309521953F4F4F4F63
:1022F0005F4F0EC020E030E040E050E009C02FEF1B
:102300003FEF4FEF5FE704C020E030E040E050E8EF
:10231000B901CA012C96E2E00C943324DF92EF92CB
:10232000FF920F931F93FC01E480F58006811781D3
:10233000D1808081823048F480E090E0A0E1B0E07C
:10234000E82AF92A0A2B1B2BA5C0843009F49FC068
:10235000823021F4EE24FF24870105C0E114F1044A
:102360000105110519F4E0E0F0E096C06281738187
:102370009FEF623879070CF05BC022E83FEF261B25
:10238000370B2A3131052CF020E030E040E050E0FE
:102390002AC0B801A701022E04C07695679557950B
:1023A00047950A94D2F781E090E0A0E0B0E004C045
:1023B000880F991FAA1FBB1F2A95D2F70197A10961
:1023C000B1098E219F21A023B1230097A105B1055A
:1023D00021F081E090E0A0E0B0E09A01AB01282B71
:1023E000392B4A2B5B2BDA01C9018F779070A070D3
:1023F000B07080349105A105B10539F427FF09C0FB
:10240000205C3F4F4F4F5F4F04C0215C3F4F4F4F09
:102410005F4FE0E0F0E02030A0E03A07A0E04A079C
:10242000A0E45A0710F0E1E0F0E079018A0127C04A
:102430006038710564F5FB01E158FF4FD801C70111
:102440008F779070A070B07080349105A105B105B0
:1024500039F4E7FE0DC080E490E0A0E0B0E004C0F5
:102460008FE390E0A0E0B0E0E80EF91E0A1F1B1F0A
:1024700017FF05C016950795F794E794319687E006
:1024800016950795F794E7948A95D1F705C0EE2441
:10249000FF248701EFEFF0E06E2F679566276795C1
:1024A000902F9F77D794DD24D7948E2F8695492F30
:1024B000462B582F5D29B701CA011F910F91FF903C
:1024C000EF90DF900895FC01DB0140815181228172
:1024D000622F6F7770E0221F2227221F9381892F9E
:1024E000880F822B282F30E0991F9927991F11966A
:1024F0009C93119721153105A9F5411551056105E9
:10250000710511F482E037C082E89FEF13969C9327
:102510008E9312979A01AB0167E0220F331F441F7D
:10252000551F6A95D1F783E08C930DC0220F331F9E
:10253000441F551F12968D919C91139701971396E6
:102540009C938E931297203080E0380780E04807F4
:1025500080E4580758F314962D933D934D935C9364
:10256000179708952F3F310579F4411551056105FD
:10257000710519F484E08C93089564FF03C081E031
:102580008C9312C01C9210C02F57304013963C936E
:102590002E93129783E08C9387E0440F551F661F9C
:1025A000771F8A95D1F7706414964D935D936D9360
:1025B0007C93179708951F93DC01FB019C91923047
:1025C00008F447C08081823008F443C0943051F44D
:1025D00011961C91843099F58181682F70E0611B00
:1025E00071093FC0843021F0923031F48230B9F16A
:1025F0008181882389F12DC011961C911197823019
:10260000F1F081811817D9F412962D913C9113970E
:10261000828193818217930794F028173907BCF0C1
:1026200014968D919D910D90BC91A02D24813581A2
:1026300046815781281739074A075B0718F4112389
:1026400041F00AC082179307A407B50740F411238D
:1026500019F061E070E005C06FEF7FEF02C060E04D
:1026600070E0CB011F910895DF93CF9300D0CDB7D9
:10267000DEB789836A838A81882309F470C08981DF
:102680008830A0F4ABE3B0E0EBE3F0E08081482FCA
:102690008981282F30E081E090E0022E02C0880F6F
:1026A000991F0A94E2F7842B8C93CEC089818830DD
:1026B000D0F089818031B8F4A8E3B0E0E8E3F0E03D
:1026C0008081482F8981882F90E09C0128503040DC
:1026D00081E090E0022E02C0880F991F0A94E2F771
:1026E000842B8C93B1C089818031D0F0898188316D
:1026F000B8F4A5E3B0E0E5E3F0E08081482F8981FC
:10270000882F90E09C012051304081E090E0022E23
:1027100002C0880F991F0A94E2F7842B8C9394C00F
:102720008981883108F490C08981803208F08CC09A
:10273000A2E3B0E0E2E3F0E08081482F8981882FB6
:1027400090E09C012851304081E090E0022E02C0D0
:10275000880F991F0A94E2F7842B8C9375C08A81A5
:10276000882309F071C089818830A8F4ABE3B0E018
:10277000EBE3F0E08081482F8981282F30E081E071
:1027800090E0022E02C0880F991F0A94E2F780950C
:1027900084238C9359C089818830D8F08981803115
:1027A000C0F4A8E3B0E0E8E3F0E08081482F89813D
:1027B000882F90E09C012850304081E090E0022E6C
:1027C00002C0880F991F0A94E2F7809584238C93A6
:1027D0003BC089818031D8F089818831C0F4A5E37C
:1027E000B0E0E5E3F0E08081482F8981882F90E018
:1027F0009C012051304081E090E0022E02C0880F01
:10280000991F0A94E2F7809584238C931DC08981D7
:102810008831D0F089818032B8F4A2E3B0E0E2E3FD
:10282000F0E08081482F8981882F90E09C01285119
:10283000304081E090E0022E02C0880F991F0A9478
:10284000E2F7809584238C930F900F90CF91DF91C6
:102850000895DF93CF9300D0CDB7DEB78A83198276
:102860008A81883090F4E9E3F0E08081282F30E01D
:102870008A81882F90E0A90102C0559547958A95D5
:10288000E2F7CA01817089834AC08A818830B0F03A
:102890008A81803198F4E6E3F0E08081282F30E0EF
:1028A0008A81882F90E00897A90102C05595479525
:1028B0008A95E2F7CA018170898331C08A818031AB
:1028C000B0F08A81883198F4E3E3F0E08081282F2A
:1028D00030E08A81882F90E04097A90102C0559589
:1028E00047958A95E2F7CA018170898318C08A8169
:1028F0008831A8F08A81803290F4E0E3F0E08081B2
:10290000282F30E08A81882F90E04897A90102C0E3
:10291000559547958A95E2F7CA0181708983898127
:102920000F900F90CF91DF910895DF93CF9300D058
:10293000CDB7DEB789836A838A81882309F470C0A2
:1029400089818830A0F4AAE3B0E0EAE3F0E0808176
:10295000482F8981282F30E081E090E0022E02C0CC
:10296000880F991F0A94E2F7842B8C93CEC089813B
:102970008830D0F089818031B8F4A7E3B0E0E7E394
:10298000F0E08081482F8981882F90E09C012850B9
:10299000304081E090E0022E02C0880F991F0A9417
:1029A000E2F7842B8C93B1C089818031D0F089818A
:1029B0008831B8F4A4E3B0E0E4E3F0E08081482F8C
:1029C0008981882F90E09C012051304081E090E087
:1029D000022E02C0880F991F0A94E2F7842B8C9371
:1029E00094C08981883108F490C08981803208F0D0
:1029F0008CC0A1E3B0E0E1E3F0E08081482F898161
:102A0000882F90E09C012851304081E090E0022E18
:102A100002C0880F991F0A94E2F7842B8C9375C02B
:102A20008A81882309F071C089818830A8F4AAE3DB
:102A3000B0E0EAE3F0E08081482F8981282F30E080
:102A400081E090E0022E02C0880F991F0A94E2F7FD
:102A5000809584238C9359C089818830D8F08981EE
:102A60008031C0F4A7E3B0E0E7E3F0E08081482FD5
:102A70008981882F90E09C012850304081E090E0CF
:102A8000022E02C0880F991F0A94E2F780958423D2
:102A90008C933BC089818031D8F089818831C0F422
:102AA000A4E3B0E0E4E3F0E08081482F8981882F3F
:102AB00090E09C012051304081E090E0022E02C065
:102AC000880F991F0A94E2F7809584238C931DC088
:102AD00089818831D0F089818032B8F4A1E3B0E0F7
:102AE000E1E3F0E08081482F8981882F90E09C010C
:102AF0002851304081E090E0022E02C0880F991FDB
:102B00000A94E2F7809584238C930F900F90CF91D5
:102B1000DF910895DF93CF93CDB7DEB782E161E017
:102B20000E94951483E161E00E94951484E161E0C4
:102B30000E94951485E160E00E94951486E160E0B2
:102B40000E94951487E160E00E94951485E161E0A0
:102B50000E94341386E161E00E94341387E161E052
:102B60000E943413CF91DF910895DF93CF9300D06B
:102B700000D0CDB7DEB71A82198282E18C832BC0D8
:102B80008C8160E00E94341385E18B831AC08B81B5
:102B90000E942914882391F48981882379F48B81F8
:102BA000282F30E0C901880F991F820F931F982F9B
:102BB0008C81890F80558A8381E089838B818F5F27
:102BC0008B838B81883118F38C8161E00E943413F0
:102BD0008C818F5F8C838C81853190F28A810F90FC
:102BE0000F900F900F90CF91DF910895EF92FF9289
:102BF0000F931F93DF93CF930F92CDB7DEB78091E2
:102C0000000290910102A0910202B091030201968C
:102C1000A11DB11D8093000290930102A0930202B6
:102C2000B0930302198247C08981282F30E0C9017F
:102C3000880F991F820F931F880F991FFC01E75F70
:102C4000FD4F80818130A1F5E0900002F0900102FB
:102C500000910202109103028981282F30E0C901FE
:102C6000880F991F820F931F0196880F991FFC01EF
:102C7000EC5FFD4F808191819C0140E050E0C801F4
:102C8000B7010E94C623DC01CB010097A105B10565
:102C900079F48981282F30E0C901880F991F820FAC
:102CA000931F880F991FFC01E75FFD4F82E080832F
:102CB00089818F5F89838981833008F4B5CF0F9034
:102CC000CF91DF911F910F91FF90EF900895DF93C7
:102CD000CF93CDB7DEB788E063E00E94581788E055
:102CE0000E94781786EF95E10E9413191092000256
:102CF000109201021092020210920302CF91DF9112
:102D00000895DF93CF93CDB7DEB70E946E17CF91B2
:102D1000DF910895DF93CF930F92CDB7DEB719827D
:102D200054C08981282F30E0C901880F991F820F74
:102D3000931F880F991FFC01E75FFD4F8081823050
:102D400009F040C08981282F30E0C901880F991F00
:102D5000820F931F880F991FFC01EC5FFD4F80814C
:102D60009181009779F18981282F30E0C901880F7E
:102D7000991F820F931F880F991FFC01E75FFD4F7A
:102D800083E080838981282F30E0C901880F991F53
:102D9000820F931F880F991FFC01EC5FFD4F01907C
:102DA000F081E02D09958981282F30E0C901880F35
:102DB000991F820F931F880F991FFC01E75FFD4F3A
:102DC00081E0808389818F5F89838981833008F4E2
:102DD000A8CFA5CFDF93CF9300D000D00F92CDB76F
:102DE000DEB79A8389837C836B834D838D81282F03
:102DF00030E0C901880F991F820F931F880F991F18
:102E0000FC01EC5FFD4F89819A81918380838D81E4
:102E1000282F30E0C901880F991F820F931F019658
:102E2000880F991FFC01EC5FFD4F8B819C81918382
:102E300080838D81282F30E0C901880F991F820F70
:102E4000931F880F991FFC01E85FFD4F8D818083E0
:102E50008D81282F30E0C901880F991F820F931FA1
:102E6000880F991FFC01E75FFD4F82E080830F9080
:102E70000F900F900F900F90CF91DF910895DF93F7
:102E8000CF930F92CDB7DEB789838981282F30E0A9
:102E9000C901880F991F820F931F880F991FFC018A
:102EA000EC5FFD4F118210820F90CF91DF9108955A
:102EB000DF93CF9300D0CDB7DEB789836A83E3E594
:102EC000F0E099818A81892B8083ECE5F0E08CE742
:102ED00080830F900F90CF91DF910895DF93CF9370
:102EE000CDB7DEB7E3E5F0E01082CF91DF91089532
:102EF000DF93CF930F92CDB7DEB78983AFE5B0E014
:102F0000EFE5F0E0808180688C93A9E5B0E0E9E529
:102F1000F0E0808182608C930F90CF91DF910895D3
:102F2000DF93CF9300D000D00F92CDB7DEB7698387
:102F30007A838B839C83E3E5F0E08BE08083ECE590
:102F4000F0E08CE7808311C0A8E5B0E0E8E5F0E0B0
:102F5000808182608C93E8E5F0E080818695882FFF
:102F600090E0817090700097B1F31D8289819A8101
:102F7000AB81BC810097A105B10511F081E08D8383
:102F800089819A81AB81BC810197A109B1098983AB
:102F90009A83AB83BC838D818823B1F60F900F9009
:102FA0000F900F900F90CF91DF910895AF92BF9245
:102FB000CF92DF92EF92FF920F931F93DF93CF9305
:102FC000CDB7DEB72B970FB6F894DEBF0FBECDBFDF
:102FD0002B833C834D835E836F83788789879A87B1
:102FE000E2E5F0E01082E3E5F0E08AE080838A85A4
:102FF000882379F58A85882339F58985882349F5D9
:103000008985882309F58885882319F5888588238B
:10301000D9F48F818823E9F48F818823A9F48E81E4
:103020008823B9F48E81882379F48D81882389F4EB
:103030008D81882349F48C81882359F48C818823DD
:1030400019F48B818C3728F4ECE5F0E08B818083D8
:103050009AC0AB80BC80CD80DE80EF80F88409858B
:103060001A852A2D3B2D4C2D5D2D6E2D7F2D802F09
:10307000912F0F2EFCE7AF2EF02DBB24CC24DD24A6
:10308000EE24FF2400E010E00E947500A22EB32E73
:10309000C42ED52EE62EF72E082F192F2A2D3B2DC4
:1030A0004C2D5D2D6E2D7F2D802F912F2A83AB808F
:1030B000BC80CD80DE80EF80F88409851A852A2DBA
:1030C0003B2D4C2D5D2D6E2D7F2D802F912F0F2EA2
:1030D000FCE7AF2EF02DBB24CC24DD24EE24FF240E
:1030E00000E010E00E94EA06A22EB32EC42ED52ED8
:1030F000E62EF72E082F192F2A2D3B2D4C2D5D2D56
:103100006E2D7F2D802F912F298315C0ECE5F0E0E7
:103110008CE78083A8E5B0E0E8E5F0E0808182609C
:103120008C93E8E5F0E080818695882F90E08170AF
:1031300090700097B1F38A818B878B85882311F07B
:1031400081E08B878B859A8191509A838823F1F651
:1031500089818823C1F0E2E5F0E01082ECE5F0E03F
:1031600089818083A8E5B0E0E8E5F0E080818260B5
:103170008C93E8E5F0E080818695882F90E081705F
:1031800090700097B1F32B960FB6F894DEBF0FBE88
:10319000CDBFCF91DF911F910F91FF90EF90DF9006
:1031A000CF90BF90AF900895DF93CF9300D0CDB76D
:1031B000DEB79A83898389819A8190931F028093D5
:1031C0001E020F900F90CF91DF9108951F920F92E2
:1031D0000FB60F9211242F933F934F935F936F93EA
:1031E0007F938F939F93AF93BF93EF93FF93DF935F
:1031F000CF93CDB7DEB7E0911E02F0911F02099583
:10320000CF91DF91FF91EF91BF91AF919F918F91FE
:103210007F916F915F914F913F912F910F900FBED2
:103220000F901F901895DF93CF9300D0CDB7DEB7E6
:103230009A83898389819A8190931F0280931E02C9
:103240000F900F90CF91DF9108951F920F920FB6BC
:103250000F9211242F933F934F935F936F937F931C
:103260008F939F93AF93BF93EF93FF93DF93CF938E
:10327000CDB7DEB7E0911E02F0911F020995CF9104
:10328000DF91FF91EF91BF91AF919F918F917F91CE
:103290006F915F914F913F912F910F900FBE0F90C3
:1032A0001F901895DF93CF93CDB7DEB7E8970FB691
:1032B000F894DEBF0FBECDBFEAE3F0E08FEF80836E
:1032C000ABE3B0E0EBE3F0E080818B7F8C9380E0B8
:1032D00090E0A0E7B1E48DAB9EABAFABB8AF6DA90A
:1032E0007EA98FA998AD20E030E04AEF54E40E9417
:1032F000040FDC01CB0189AB9AABABABBCAB69A9CA
:103300007AA98BA99CA920E030E040E85FE30E9405
:103310000A1188232CF481E090E098AB8FA73FC07E
:1033200069A97AA98BA99CA920E03FEF4FE757E450
:103330000E94AA1018164CF56DA97EA98FA998AD08
:1033400020E030E040E251E40E94040FDC01CB01B8
:10335000BC01CD010E944900DC01CB0198AB8FA7D5
:103360000FC088EC90E09EA78DA78DA59EA5019724
:10337000F1F79EA78DA78FA598A9019798AB8FA766
:103380008FA598A9009769F714C069A97AA98BA994
:103390009CA90E944900DC01CB0198AB8FA78FA5A7
:1033A00098A99CA78BA78BA59CA50197F1F79CA733
:1033B0008BA783E00E94501B80E090E0A0EAB0E47D
:1033C0008FA398A7A9A7BAA76FA178A589A59AA541
:1033D00020E030E04AEF54E40E94040FDC01CB010E
:1033E0008BA39CA3ADA3BEA36BA17CA18DA19EA129
:1033F00020E030E040E85FE30E940A1188232CF4CB
:1034000081E090E09AA389A33FC06BA17CA18DA12C
:103410009EA120E03FEF4FE757E40E94AA10181644
:103420004CF56FA178A589A59AA520E030E040E28F
:1034300051E40E94040FDC01CB01BC01CD010E94CC
:103440004900DC01CB019AA389A30FC088EC90E06E
:1034500098A38F8F8F8D98A10197F1F798A38F8FE5
:1034600089A19AA101979AA389A389A19AA10097FA
:1034700069F714C06BA17CA18DA19EA10E94490097
:10348000DC01CB019AA389A389A19AA19E8F8D8F7C
:103490008D8D9E8D0197F1F79E8F8D8F83E00E9419
:1034A000501B80E090E0A0E3B1E4898F9A8FAB8F4E
:1034B000BC8F698D7A8D8B8D9C8D20E030E04AEF3A
:1034C00054E40E94040FDC01CB018D8B9E8BAF8BEB
:1034D000B88F6D897E898F89988D20E030E040E833
:1034E0005FE30E940A1188232CF481E090E09C8B1A
:1034F0008B8B3FC06D897E898F89988D20E03FEF4F
:103500004FE757E40E94AA1018164CF5698D7A8D82
:103510008B8D9C8D20E030E040E251E40E94040F4E
:10352000DC01CB01BC01CD010E944900DC01CB01D3
:103530009C8B8B8B0FC088EC90E09A8B898B898950
:103540009A890197F1F79A8B898B8B899C890197CE
:103550009C8B8B8B8B899C89009769F714C06D8934
:103560007E898F89988D0E944900DC01CB019C8B5C
:103570008B8B8B899C89988B8F878F8598890197F6
:10358000F1F7988B8F8783E00E94501B82E00E94A6
:10359000501B88E20E94501B8CE00E94501B86E06A
:1035A0000E94501B81E00E94501B80E090E0A0E050
:1035B000B0E48B879C87AD87BE876B857C858D85C6
:1035C0009E8520E030E04AEF54E40E94040FDC01C5
:1035D000CB018F839887A987BA876F817885898582
:1035E0009A8520E030E040E85FE30E940A118823DA
:1035F0002CF481E090E09E838D833FC06F817885BD
:1036000089859A8520E03FEF4FE757E40E94AA1092
:1036100018164CF56B857C858D859E8520E030E005
:1036200040E251E40E94040FDC01CB01BC01CD015A
:103630000E944900DC01CB019E838D830FC088EC82
:1036400090E09C838B838B819C810197F1F79C8315
:103650008B838D819E8101979E838D838D819E8139
:10366000009769F714C06F81788589859A850E94D3
:103670004900DC01CB019E838D838D819E819A83DD
:10368000898389819A810197F1F79A838983E896E2
:103690000FB6F894DEBF0FBECDBFCF91DF91089576
:1036A0000F931F93DF93CF93CDB7DEB7C954D040AC
:1036B0000FB6F894DEBF0FBECDBFFE01E75BFF4F34
:1036C0008083ABE3B0E0EBE3F0E08081982F9F7064
:1036D000FE01E75BFF4F8081807F892B8C93ABE3FA
:1036E000B0E0EBE3F0E080818D7F8C93ABE3B0E062
:1036F000EBE3F0E0808188608C93FE01EB5BFF4F91
:1037000080E090E0A0E0B0E480839183A283B38363
:103710008E010F5B1F4FFE01EB5BFF4F60817181DC
:10372000828193812BEA3AEA4AE250E40E94040F34
:10373000DC01CB01F80180839183A283B383FE0176
:10374000EF5BFF4F608171818281938120E030E0E7
:1037500040E85FE30E940A11882334F481E0FE010F
:10376000E05CFF4F80839DC0FE01EF5BFF4F6081F7
:1037700071818281938120E030E04FE753E40E9421
:10378000AA1018160CF07EC0FE01EB5BFF4F6081A3
:1037900071818281938120E030E04AE754E40E9405
:1037A000FE0FDC01CB018CAF9DAFAEAFBFAF6CADF8
:1037B0007DAD8EAD9FAD20E030E04AEF54E40E9435
:1037C000040FDC01CB0188AF99AFAAAFBBAF68ADE6
:1037D00079AD8AAD9BAD20E030E040E85FE30E9428
:1037E0000A1188232CF481E090E09FAB8EAB3FC0A0
:1037F00068AD79AD8AAD9BAD20E03FEF4FE757E470
:103800000E94AA1018164CF56CAD7DAD8EAD9FAD23
:1038100020E030E040E251E40E94040FDC01CB01E3
:10382000BC01CD010E944900DC01CB019FAB8EABF6
:103830000FC088EC90E09DAB8CAB8CA99DA9019743
:10384000F1F79DAB8CAB8EA99FA901979FAB8EAB77
:103850008EA99FA9009769F72DC068AD79AD8AAD93
:103860009BAD0E944900DC01CB019FAB8EAB8EA9C2
:103870009FA99BAB8AAB8AA99BA90197F1F79BAB48
:103880008AAB18C0FE01EF5BFF4F608171818281BE
:1038900093810E944900DC01CB01FE01E05CFF4FF7
:1038A0008083FE01E05CFF4F808189AB89A98A9506
:1038B000F1F789ABABE3B0E0EBE3F0E08081877F29
:1038C0008C9380E090E0A8E4B3E48DA79EA7AFA717
:1038D000B8AB6DA57EA58FA598A92BEA3AEA4AE276
:1038E00050E40E94040FDC01CB0189A79AA7ABA783
:1038F000BCA769A57AA58BA59CA520E030E040E88F
:103900005FE30E940A1188231CF481E088A791C01C
:1039100069A57AA58BA59CA520E030E04FE753E48C
:103920000E94AA1018160CF07BC06DA57EA58FA56D
:1039300098A920E030E04AE754E40E94FE0FDC0141
:10394000CB018CA39DA3AEA3BFA36CA17DA18EA12F
:103950009FA120E030E04AEF54E40E94040FDC0114
:10396000CB0188A399A3AAA3BBA368A179A18AA12B
:103970009BA120E030E040E85FE30E940A11882329
:103980002CF481E090E09F8F8E8F3FC068A179A1D9
:103990008AA19BA120E03FEF4FE757E40E94AA10C5
:1039A00018164CF56CA17DA18EA19FA120E030E0FE
:1039B00040E251E40E94040FDC01CB01BC01CD01C7
:1039C0000E944900DC01CB019F8F8E8F0FC088ECD5
:1039D00090E09D8F8C8F8C8D9D8D0197F1F79D8F41
:1039E0008C8F8E8D9F8D01979F8F8E8F8E8D9F8D4B
:1039F000009769F724C068A179A18AA19BA10E94C0
:103A00004900DC01CB019F8F8E8F8E8D9F8D9B8F08
:103A10008A8F8A8D9B8D0197F1F79B8F8A8F0FC0BC
:103A200069A57AA58BA59CA50E944900DC01CB0164
:103A300088A788A5898F898D8A95F1F7898FABE34F
:103A4000B0E0EBE3F0E08081282F2F70FE01E75B10
:103A5000FF4F8081882F90E082959295907F9827E4
:103A6000807F9827822B8C93ABE3B0E0EBE3F0E010
:103A7000808188608C9380E090E0A0E0B0E48D8B42
:103A80009E8BAF8BB88F6D897E898F89988D2BEA3D
:103A90003AEA4AE250E40E94040FDC01CB01898B30
:103AA0009A8BAB8BBC8B69897A898B899C8920E046
:103AB00030E040E85FE30E940A1188231CF481E0B3
:103AC000888B91C069897A898B899C8920E030E054
:103AD0004FE753E40E94AA1018160CF07BC06D89C2
:103AE0007E898F89988D20E030E04AE754E40E9477
:103AF000FE0FDC01CB018C879D87AE87BF876C856D
:103B00007D858E859F8520E030E04AEF54E40E9459
:103B1000040FDC01CB0188879987AA87BB8768855A
:103B200079858A859B8520E030E040E85FE30E944C
:103B30000A1188232CF481E090E09F838E833FC09C
:103B4000688579858A859B8520E03FEF4FE757E4BC
:103B50000E94AA1018164CF56C857D858E859F8570
:103B600020E030E040E251E40E94040FDC01CB0190
:103B7000BC01CD010E944900DC01CB019F838E83F3
:103B80000FC088EC90E09D838C838C819D81019790
:103B9000F1F79D838C838E819F8101979F838E8314
:103BA0008E819F81009769F724C0688579858A8511
:103BB0009B850E944900DC01CB019F838E838E810F
:103BC0009F819B838A838A819B810197F1F79B83E5
:103BD0008A830FC069897A898B899C890E944900F0
:103BE000DC01CB01888B8889898389818A95F1F7EB
:103BF0008983ABE3B0E0EBE3F0E08081877F8C93D7
:103C0000C75BDF4F0FB6F894DEBF0FBECDBFCF91BD
:103C1000DF911F910F9108950F931F93DF93CF931F
:103C2000CDB7DEB7C755D0400FB6F894DEBF0FBE94
:103C3000CDBFFE01E95AFF4F8083ABE3B0E0EBE379
:103C4000F0E08081982F9F70FE01E95AFF4F80813C
:103C5000807F892B8C93ABE3B0E0EBE3F0E08081D5
:103C600082608C93ABE3B0E0EBE3F0E080818860AE
:103C70008C93FE01ED5AFF4F80E090E0A0E0B0E4AD
:103C800080839183A283B3838E01015B1F4FFE016A
:103C9000ED5AFF4F60817181828193812BEA3AEA6C
:103CA0004AE250E40E94040FDC01CB01F80180835A
:103CB0009183A283B383FE01E15BFF4F6081718139
:103CC0008281938120E030E040E85FE30E940A11A6
:103CD000882334F4FE01E25BFF4F81E08083E0C083
:103CE000FE01E15BFF4F608171818281938120E061
:103CF00030E04FE753E40E94AA1018160CF0C0C041
:103D0000FE01ED5AFF4F608171818281938120E035
:103D100030E04AE754E40E94FE0FDC01CB01FE01D3
:103D2000E65BFF4F80839183A283B3838E010A5B9E
:103D30001F4FFE01E65BFF4F60817181828193819D
:103D400020E030E04AEF54E40E94040FDC01CB0194
:103D5000F80180839183A283B383FE01EA5BFF4F66
:103D6000608171818281938120E030E040E85FE3EF
:103D70000E940A11882344F4FE01EC5BFF4F81E0AE
:103D800090E09183808364C0FE01EA5BFF4F608115
:103D900071818281938120E03FEF4FE757E40E94D9
:103DA000AA1018160CF043C0FE01E65BFF4F6081BD
:103DB00071818281938120E030E040E251E40E94F1
:103DC000040FDC01CB018E010C5B1F4FBC01CD0148
:103DD0000E944900DC01CB01F801918380831FC060
:103DE000FE01EE5BFF4F88EC90E091838083FE0143
:103DF000EE5BFF4F808191810197F1F7FE01EE5B51
:103E0000FF4F91838083DE01AC5BBF4FFE01EC5B13
:103E1000FF4F80819181019711969C938E93FE01B3
:103E2000EC5BFF4F808191810097D1F642C08E01FB
:103E30000C5B1F4FFE01EA5BFF4F60817181828145
:103E400093810E944900DC01CB01F80191838083BA
:103E5000DE01A05CBF4FFE01EC5BFF4F80819181D2
:103E600011969C938E93FE01E05CFF4F80819181BF
:103E70000197F1F7FE01E05CFF4F9183808319C049
:103E80008E01025B1F4FFE01E15BFF4F608171817C
:103E9000828193810E944900DC01CB01F80180837B
:103EA000FE01E25BFF4F80818FAF8FAD8A95F1F706
:103EB0008FAFABE3B0E0EBE3F0E08081877F8C93E2
:103EC00080E090E0A8E4B3E48BAF9CAFADAFBEAFB1
:103ED0006BAD7CAD8DAD9EAD2BEA3AEA4AE250E483
:103EE0000E94040FDC01CB018FAB98AFA9AFBAAF32
:103EF0006FA978AD89AD9AAD20E030E040E85FE38E
:103F00000E940A1188231CF481E08EAB91C06FA936
:103F100078AD89AD9AAD20E030E04FE753E40E94E0
:103F2000AA1018160CF07BC06BAD7CAD8DAD9EADAC
:103F300020E030E04AE754E40E94FE0FDC01CB01B0
:103F40008AAB9BABACABBDAB6AA97BA98CA99DA985
:103F500020E030E04AEF54E40E94040FDC01CB0182
:103F60008EA79FA7A8ABB9AB6EA57FA588A999A975
:103F700020E030E040E85FE30E940A1188232CF43F
:103F800081E090E09DA78CA73FC06EA57FA588A982
:103F900099A920E03FEF4FE757E40E94AA101816B6
:103FA0004CF56AA97BA98CA99DA920E030E040E2EC
:103FB00051E40E94040FDC01CB01BC01CD010E9441
:103FC0004900DC01CB019DA78CA70FC088EC90E0D5
:103FD0009BA78AA78AA59BA50197F1F79BA78AA70C
:103FE0008CA59DA501979DA78CA78CA59DA5009745
:103FF00069F724C06EA57FA588A999A90E944900E8
:10400000DC01CB019DA78CA78CA59DA599A788A7AE
:1040100088A599A50197F1F799A788A70FC06FA95F
:1040200078AD89AD9AAD0E944900DC01CB018EAB21
:104030008EA98FA38FA18A95F1F78FA3ABE3B0E090
:10404000EBE3F0E08081282F2F70FE01E95AFF4F4B
:104050008081882F90E082959295907F9827807F2D
:104060009827822B8C93ABE3B0E0EBE3F0E0808108
:1040700088608C9380E090E0A0E8BFE38BA39CA3D2
:10408000ADA3BEA36BA17CA18DA19EA12BEA3AEAB0
:104090004AE250E40E94040FDC01CB018F8F98A309
:1040A000A9A3BAA36F8D78A189A19AA120E030E0DD
:1040B00040E85FE30E940A1188231CF481E08E8FA0
:1040C00091C06F8D78A189A19AA120E030E04FE7DF
:1040D00053E40E94AA1018160CF07BC06BA17CA1BF
:1040E0008DA19EA120E030E04AE754E40E94FE0F3B
:1040F000DC01CB018A8F9B8FAC8FBD8F6A8D7B8D4E
:104100008C8D9D8D20E030E04AEF54E40E94040F36
:10411000DC01CB018E8B9F8BA88FB98F6E897F8935
:10412000888D998D20E030E040E85FE30E940A111D
:1041300088232CF481E090E09D8B8C8B3FC06E89AE
:104140007F89888D998D20E03FEF4FE757E40E94EB
:10415000AA1018164CF56A8D7B8D8C8D9D8D20E0F4
:1041600030E040E251E40E94040FDC01CB01BC01CD
:10417000CD010E944900DC01CB019D8B8C8B0FC0CF
:1041800088EC90E09B8B8A8B8A899B890197F1F759
:104190009B8B8A8B8C899D8901979D8B8C8B8C89BD
:1041A0009D89009769F724C06E897F89888D998DD4
:1041B0000E944900DC01CB019D8B8C8B8C899D89F1
:1041C000998B888B888999890197F1F7998B888BCE
:1041D0000FC06F8D78A189A19AA10E944900DC01CE
:1041E000CB018E8F8E8D8F878F858A95F1F78F8784
:1041F000ABE3B0E0EBE3F0E08081877F8C9380E07D
:1042000090E0A0E8BFE38B879C87AD87BE876B8576
:104210007C858D859E8520E030E04AEF54E40E9445
:10422000040FDC01CB018F839887A987BA876F8140
:10423000788589859A8520E030E040E85FE30E9438
:104240000A1188232CF481E090E09E838D833FC087
:104250006F81788589859A8520E03FEF4FE757E4A5
:104260000E94AA1018164CF56B857C858D859E855D
:1042700020E030E040E251E40E94040FDC01CB0179
:10428000BC01CD010E944900DC01CB019E838D83DE
:104290000FC088EC90E09C838B838B819C8101977D
:1042A000F1F79C838B838D819E8101979E838D8303
:1042B0008D819E81009769F714C06F81788589850B
:1042C0009A850E944900DC01CB019E838D838D81FC
:1042D0009E819A83898389819A810197F1F79A83D4
:1042E0008983C95ADF4F0FB6F894DEBF0FBECDBF2A
:1042F000CF91DF911F910F910895DF93CF9300D05D
:104300000F92CDB7DEB79B838A8319820EC0898155
:10431000282F30E08A819B81FC01E20FF31F80810E
:104320000E940C1E89818F5F89838981282F30E04C
:104330008A819B81FC01E20FF31F8081882339F77A
:104340000F900F900F90CF91DF910895DF93CF934F
:1043500000D000D0CDB7DEB79A8389836B834C83BE
:104360008B816C810E944A2289819A810E947D21E1
:104370000F900F900F900F90CF91DF910895DF93E2
:10438000CF93CDB7DEB72E970FB6F894DEBF0FBE32
:10439000CDBF81E00E94501B80E090E0A0E8BFE329
:1043A0008B879C87AD87BE876B857C858D859E8539
:1043B00020E030E04AEF54E40E94040FDC01CB011E
:1043C0008F839887A987BA876F81788589859A8531
:1043D00020E030E040E85FE30E940A1188232CF4DB
:1043E00081E090E09E838D833FC06F8178858985D1
:1043F0009A8520E03FEF4FE757E40E94AA10181675
:104400004CF56B857C858D859E8520E030E040E213
:1044100051E40E94040FDC01CB01BC01CD010E94DC
:104420004900DC01CB019E838D830FC088EC90E0B6
:104430009C838B838B819C810197F1F79C838B8379
:104440008D819E8101979E838D838D819E810097B2
:1044500069F714C06F81788589859A850E94490023
:10446000DC01CB019E838D838D819E819A8389831C
:1044700089819A810197F1F79A83898380E80E9464
:10448000501B2E960FB6F894DEBF0FBECDBFCF9156
:10449000DF910895DF93CF9300D000D0CDB7DEB782
:1044A00089836A838A81282F30E03C832B838B8128
:1044B0009C818130910531F02B813C812230310586
:1044C00031F009C0898180580E94501B04C0898145
:1044D00080540E94501B0F900F900F900F90CF911F
:1044E000DF910895DF93CF93CDB7DEB7E7E3F0E038
:1044F00080E18083A8E3B0E0E8E3F0E080818061C0
:104500008C930E945219E1E3F0E08FEF80830E94C8
:104510008A150E9467168CEF92E26AE070E040E034
:104520000E94EA168EEA92E26AE070E041E00E94A0
:10453000EA1683EA93E26AE070E042E00E94EA163B
:104540000E948A1680E090E0CF91DF910895DF937A
:10455000CF93CDB7DEB7CF91DF910895DF93CF939F
:10456000CDB7DEB79091160280918701981701F1BF
:104570008091FF018823E1F00E94BF2148E851E0CB
:1045800080911602282F30E0C90182959295907F84
:104590009827807F9827820F931F840F951F0E9472
:1045A0007D21809116028093870181E08093FF0135
:1045B000809116028630E9F48091FF018823C9F0CA
:1045C000A8E3B0E0E8E3F0E0808180618C93109292
:1045D000FF010E94BF2180E690E00E947D21809132
:1045E0001B02882F90E0FC01EC50FE4F80810E945E
:1045F0000C1ECF91DF910895DF93CF9300D0CDB7FC
:10460000DEB78091FE018130C1F4A8E3B0E0E8E3B9
:10461000F0E080818F7E8C930E94B5158093190203
:104620009091170280911902981739F08091190220
:10463000882319F082E080931A0280911A02282FB1
:1046400030E03A83298389819A818230910539F05B
:1046500029813A812330310509F46AC06FC0809105
:1046600018028F5F809318021092FE018091190248
:104670008093170280911802853009F05FC0809105
:1046800019028130F1F481E080931C0281E0809373
:104690001D028091FF01882309F041C00E94BF21C3
:1046A0008BE690E060E041E00E94A62187E790E081
:1046B00060E042E00E94A621E2E3F0E082E0808335
:1046C0002EC0809119028330E1F410921C0281E027
:1046D00080931D028091FF01882309F50E94BF216C
:1046E0008BE690E060E041E00E94A62187E790E041
:1046F00060E042E00E94A621E2E3F0E082E08083F5
:104700000EC080911902823051F481E08093FF0144
:104710001092160281E08093870110921B0281E0C3
:104720008093FE0183E080931A021092180206C063
:1047300080911902882311F4109217020F900F90A4
:10474000CF91DF910895DF93CF93CDB7DEB78091FE
:104750001D028130C1F410921D0280918701882FC3
:1047600090E0FC01E251FE4F908180911C0298176D
:1047700029F480911B028F5F80931B0280911602A7
:104780008F5F80931602CF91DF910895A1E21A2ED8
:10479000AA1BBB1BFD010DC0AA1FBB1FEE1FFF1FE5
:1047A000A217B307E407F50720F0A21BB30BE40B35
:1047B000F50B661F771F881F991F1A9469F760957C
:1047C0007095809590959B01AC01BD01CF01089536
:1047D000629FD001739FF001829FE00DF11D649FE5
:1047E000E00DF11D929FF00D839FF00D749FF00D71
:1047F000659FF00D9927729FB00DE11DF91F639F12
:10480000B00DE11DF91FBD01CF01112408952F92B4
:104810003F924F925F926F927F928F929F92AF9250
:10482000BF92CF92DF92EF92FF920F931F93CF939D
:10483000DF93CDB7DEB7CA1BDB0B0FB6F894DEBF34
:104840000FBECDBF09942A88398848885F846E845A
:104850007D848C849B84AA84B984C884DF80EE80A4
:10486000FD800C811B81AA81B981CE0FD11D0FB6AD
:10487000F894DEBF0FBECDBFED010895F894FFCFD1
:10488000596F7520676F74203A20005072657373FA
:1048900020737461727400746F20706C6179000011
:1048A00000000000000000000102020303030304F3
:1048B00004040404040404050505050505050505AF
:1048C000050505050505050606060606060606068F
:1048D0000606060606060606060606060606060678
:1048E000060606060606060707070707070707075F
:1048F0000707070707070707070707070707070748
:104900000707070707070707070707070707070737
:104910000707070707070707070707070707070727
:10492000070707070707070808080808080808080E
:1049300008080808080808080808080808080808F7
:1049400008080808080808080808080808080808E7
:1049500008080808080808080808080808080808D7
:1049600008080808080808080808080808080808C7
:1049700008080808080808080808080808080808B7
:1049800008080808080808080808080808080808A7
:104990000808080808080808080808080808080897
:1049A000080808080808080141726520752072652A
:1049B000616479205E5F5E00004153434949206F86
:1049C000662745273D2037303F0041534349492062
:1049D0006F662737273D2035353F003437203D208F
:1049E0004153434949202730273F00003937203DB4
:1049F000204153434949202761273F00004E554C31
:104A00004C3D2028766F69642930203F0000080063
:104A10000100010030313233343536373839010185
:00000001FF
